:1000000080313128080008007E1480314E01961E90
:100010000A280B2813288C1E0E280F2813289C3121
:100020005E2480312F28161E162817281F280C1E24
:100030001A281B281F289C313C2480312F280B1F95
:10004000222823282F281A1C262827282F28101C6E
:100050002A282B282F289C319C2480312F287E1081
:10006000090080313328353084009D308500A03070
:100070008600003087001D308831012080317C30BF
:1000800084009030850020308600013087003D30AC
:100090008831012080314030840090308500A030CC
:1000A0008600013087003C308831012080311930D2
:1000B00084009D30850020308600023087001C308F
:1000C000883101208031FA01FB01BD30840000300D
:1000D00085001A309B31932380315D3084000130DC
:1000E00085000A309B31932380317E104001893195
:1000F0004729400143088039CD004335D300C21F52
:1001000082288328842853145308031988288928AF
:100110009828530A031D8D288E2896280030C30086
:100120000030C2000030C1000030C000C217A0285B
:100130000030C3000030C2000030C1000030C000F9
:1001400047088039CD064735CE00C61FA828A92804
:10015000AA284E144E080319AE28AF28BE284E0A0E
:10016000031DB328B428BC280030C7000030C600E7
:100170000030C5000030C400C617C6280030C700D4
:100180000030C6000030C5000030C4004E0803191E
:10019000CA28CB28D0285308031DCF28D028D92817
:1001A0000030C3000030C2000030C1000030C00089
:1001B000B32A4008F20046089D31B025803173080B
:1001C0004001D9007208D8005808C800C901CA0106
:1001D000CB014B08D2004A08D1004908D00048089A
:1001E000CF005908C800C901CA01CB014B08D7008C
:1001F0004A08D6004908D5004808D4004108F20052
:1002000045089D31B025803173084001D90072083E
:10021000D8005808C800C901CA01CB014808CF0757
:100220004908D03D4A08D13D4B08D23D5908C80085
:10023000C901CA01CB014808D4074908D53D4A087D
:10024000D63D4B08D73D4208F20044089D31B02509
:10025000803173084001D9007208D8005808C800DE
:10026000C901CA01CB014808CF074908D03D4A0857
:10027000D13D4B08D23D5908C800C901CA01CB0184
:100280004808D4074908D53D4A08D63D4B08D73D14
:100290000830CF35D00DD10DD20D890B4929410839
:1002A000F20044089D31B025803173084001D90027
:1002B0007208D8005808CF075908D03D0030D13D0A
:1002C000D23D4008F20045089D31B02580317308C9
:1002D0004001D9007208D8005808CF075908D03D0E
:1002E0000030D13DD23D0830CF35D00DD10DD20DEB
:1002F000890B74294008F20044089D31B0258031F3
:1003000073084001D9007208D8005808CF0759086F
:10031000D03D0030D13DD23D4108F20046089D312C
:10032000B025803173084001D9007208D800580800
:10033000D4075908D53D0030D63DD73D4208F200DC
:1003400045089D31B025803173084001D9007208FD
:10035000D8005808D4075908D53D0030D63DD73DC0
:100360004208F20046089D31B025803173084001F3
:10037000D9007208D8005808C8005908C900CA0135
:10038000CB010830C835C90DCA0DCB0D890BC22968
:100390004808D4074908D53D4A08D63D4B08D73D03
:1003A0004F08C8005008C9005108CA005208CB00C5
:1003B0001830CB36CA0CC90CC80C890BD92948088F
:1003C000D4074908D53D4A08D63D4B08D73D0830EB
:1003D000CF35D00DD10DD20D890BE82953084E072A
:1003E000C800C901C90D4808823ED800FF30493D08
:1003F000D900112A0130D435D50DD60DD70D890B72
:10040000FB29D21F042A052A062A54140130CF35AD
:10041000D00DD10DD20D890B072AFF30D807FF3040
:10042000D93DD61F142A152AFA29CE01D21F192A1E
:100430001A2A362AFF304F05C800FF305005C90080
:10044000FF305105CA007F305205CB004B084A04EB
:100450004904480403192D2A2E2A312A0130CE00DE
:10046000362A541C342A352A362A2E2A4E080319D5
:100470003A2A3B2A612A0130D4070030D53DD63DC7
:10048000D73D571C442A452A612A5408C8005508FC
:10049000C9005608CA005708CB000130CC00CB3742
:1004A000CA0CC90CC80CCC0B4F2A4B08D7004A0801
:1004B000D6004908D5004808D4000130D8070030DC
:1004C000D93D5908803AC80080304802031D6A2A85
:1004D000FF305802031C6D2A6E2A782A7F304001B3
:1004E000D7008030D6000030D5000030D400A92AD3
:1004F00040015908803AC80080304802031D822A12
:10050000013058020318852A862A912A00304001BA
:10051000D7000030D6000030D5000030D400CD0127
:10052000A92A40015808D300FF30D405FF30D50573
:100530007F30D6050030D705531C9F2AA02AA12A58
:10054000D6175308C8000130C836890BA42A4808BA
:10055000D7004D08D7045708C3005608C2005508F5
:10056000C1005408C000080000309C31FE248231D4
:1005700073084101E7007208E6005408031DC12A10
:10058000C22ACF2A4D08031DC62AC72ACF2A6708C8
:100590004001DB00410166084001DA00CC2C02304A
:1005A0005406031DD42AD52AD62AC72A550803196A
:1005B000DA2ADB2A302B4008E4003F08E300003051
:1005C00064020A30031963020318E72AE82AED2AB5
:1005D0000A30E3000030E400FA2A03306402F63007
:1005E00003196302031CF52AF62AFA2AF530E30000
:1005F0000330E4006308F63E4001DC00FF304101B7
:10060000643D4001DD005D0841016702031D0C2BC4
:1006100040015C0841016602031C0F2B102B302B9C
:1006200063080A3E4001DC0000304101643D4001A6
:10063000DD004101670840015D02031D232B4101DC
:10064000660840015C02031C262B272B302B41013E
:1006500040084001DB0041013F084001DA00CC2C9A
:1006600041015408031D352B362B5A2C67084001D5
:10067000DD00410166084001DC000730DD36DC0C9E
:10068000890B3E2B5C084101CB0049304001A90099
:100690007430A8002430A7000030A60041013C08B7
:1006A000F5003B08F4003A08F3003908F200003086
:1006B0009531E625823175084001AD007408AC0023
:1006C0007308AB007208AA008C31602482314001AB
:1006D00029084101DE00400128084101DD004001F8
:1006E00027084101DC00400126084101DB004430BD
:1006F0004001C3007A30C2000030C1000030C000A9
:1007000041015E084001A90041015D084001A800C7
:1007100041015C084001A70041015B084001A600BF
:100720003F30AD008030AC000030AB000030AA009C
:100730008C316024823140012908C7002808C60096
:100740002708C5002608C400803179208231400185
:1007500043084101E200400142084101E10040013B
:1007600041084101E000400140084101DF00E5018E
:10077000422C38030319BD2BBE2BC32B3808031D95
:10078000C22BC32BF72B65084001DC000230DC359F
:10079000890BC72B5C08A03E860001308700403FD4
:1007A000DD00413FDE00423FDF00433FE00041010A
:1007B0006208F5006108F4006008F3005F08F200C9
:1007C00094315E248231400160087502031DF22BD2
:1007D0005F087402031DF22B5E087302031DF22BE7
:1007E0005D0872020318F52BF62B3F2C482C650888
:1007F0004001DC000230DC35890BFB2B5C08203E1D
:10080000860002308700403FDD00413FDE00423F6E
:10081000DF00433FE0000030A5000030A4000330BB
:10082000A300E830A20041016208F5006108F4006D
:100830006008F3005F08F20094315E24823175088D
:100840004001A9007408A8007308A7007208A60058
:100850009231D0228231400160082502031D3A2CDA
:100860005F082402031D3A2C5E082302031D3A2C64
:100870005D08220203183D2C3E2C3F2C482C0130F1
:100880004101E50708306502031C472C482CB92BB1
:100890004101650803194D2C4E2C502C0130E50206
:1008A0004B0865020318552C562CCA2C6508CB0042
:1008B000CA2CCA2C5403031D5E2C5F2C592C3508FE
:1008C0004001DC00DD01DC35DD0DDC35DD0D5C08D3
:1008D000043EF20000305D3DF300F401F31BF4032D
:1008E0007408F50001309531E62582317508400124
:1008F000C3007408C2007308C1007208C00044300D
:10090000A9007F30A800C030A7000030A600410138
:100910006608F2006708F300F401F5010030953134
:10092000E625823175084001AD007408AC007308FB
:10093000AB007208AA008C31602482314001290882
:10094000C7002808C6002708C5002608C400803153
:1009500079208231400143084101DA004001420818
:100960004101D900400141084101D800400140083F
:100970004101D7005A08F5005908F4005808F3005F
:100980005708F20094315E24823173084101B100AE
:100990007208B000D501C72A080040015D088039FF
:1009A000EA005D35EC00DC1FD62CD72CD82C6C145B
:1009B0006C080319DC2CDD2CED2C6C0A031DE12CDA
:1009C000E22CEA2C0030DD000030DC000030DB00DF
:1009D0000030DA00DC17DD01F52C0030DD000030DE
:1009E000DC000030DB000030DA0061088039EB0009
:1009F0006B086A060319FD2CFE2CFF2C6A17613563
:100A0000EB00E01F042D052D062D6B146B08031958
:100A10000A2D0B2D1B2D6B0A031D0F2D102D182DCC
:100A20000030E1000030E0000030DF000030DE0088
:100A3000E017E101232D0030E1000030E00000303C
:100A4000DF000030DE006C086B020318282D292D12
:100A50004D2D6A1F2C2D2D2D2F2D8030EA066C0870
:100A6000ED006B08EC006D08EB005A08ED005E0825
:100A7000DA006D08DE005B08ED005F08DB006D0842
:100A8000DF005C08ED006008DC006D08E0005D0838
:100A9000ED006108DD006D08E100ED016B08E2008A
:100AA000E3016308E5006C086202E400031CE5034F
:100AB0006508803AE60080306602031D612D1A3019
:100AC0006402031C642D652D9B2D40015D085C04B0
:100AD0005B045A04031D6D2D6F2D0130702D003005
:100AE000ED000030DD000030DC000030DB000030C5
:100AF000DA006B08EC00A22D6D1C7F2D802D8A2D55
:100B00006D08E2000130E236890B832D620801385E
:100B1000ED008C2D0310ED0C5A1C8F2D902D912D76
:100B2000ED170130E200DD37DC0CDB0CDA0CE20BF8
:100B3000932D0130EC0740016B086C02031CA12DC2
:100B4000A22D7C2D6A1BA52DA62DE02D6C08031D62
:100B5000AA2DAB2DB42D0030DD000030DC000030BC
:100B6000DB000030DA00D82E5E08DA075F08DB3DD4
:100B70006008DC3D6108DD3D5D1CBF2DC02D6A2E87
:100B80006D1CC32DC42DCE2D6D08E2000130E23660
:100B9000890BC72D62080138ED00D02D0310ED0C34
:100BA0005A1CD32DD42DD52DED170130E200DD37A1
:100BB000DC0CDB0CDA0CE20BD72D0130EC076A2ED3
:100BC0005D08803AE2006108803A6202031DF22D5E
:100BD00060085C02031DF22D5F085B02031DF22D0D
:100BE0005E085A020318F52DF62D2B2EFF30E20079
:100BF000FF30E300FF30E400FF30E5005A085E02FA
:100C0000E6005B085F3BE7005C08603BE8005D08CE
:100C1000613BE9006608E2076708E33D6808E43DD8
:100C20006908E53D6508DD006408DC006308DB0059
:100C30006208DA008030EA066D03FF3AED006D08C5
:100C4000031D232E242E332E0130DA070030DB3D26
:100C5000DC3DDD3D332E5E08DA025F08DB3B6008D9
:100C6000DC3B6108DD3B5D085C045B045A04031D4A
:100C70003A2E3B2E662E6D08031D3F2E402E662E0B
:100C80000030DD000030DC000030DB000030DA0036
:100C9000D82E0130DA35DB0DDC0DDD0D890B4A2E47
:100CA000ED1F532E542E552E5A146D1C582E592EAE
:100CB0005D2E03146D0DED005F2E0310ED0D6C081D
:100CC0000319632E642E662E0130EC02DC1F692EA0
:100CD0006A2E492EEB01ED1F6E2E6F2E7D2E6D08B4
:100CE0007F390319742E752E782E0130EB007D2E7E
:100CF0005A1C7B2E7C2E7D2E752E6B080319812E9F
:100D0000822EAB2E0130DA070030DB3DDC3DDD3DCD
:100D10005D1C8B2E8C2EAB2E5A08E2005B08E30084
:100D20005C08E4005D08E5000130E600E537E40C0E
:100D3000E30CE20CE60B962E6508DD006408DC008F
:100D40006308DB006208DA006C0A0319A82EA92EDA
:100D5000AB2E0130EC076C0A0319AF2EB02EB52E66
:100D60006C08031DB42EB52EC32E0030DD000030FC
:100D7000DC000030DB000030DA006C08031DC12EFF
:100D8000C22EC32EEA016C1CC62EC72EC92EDC173C
:100D9000CB2E7F30DC056C08E2000130E236890B97
:100DA000CE2E6208DD00EA1FD62ED72ED82EDD17F4
:100DB000080000304001E1000030E0000030DF00BA
:100DC0000030DE00043041013806031DE82EE92E14
:100DD000252F42304001C3008630C2003730C100A9
:100DE000CF30C0005D08F5005C08F4005B08F3003C
:100DF0005A08F20000309531E62586317508400129
:100E0000C7007408C6007308C5007208C4008031AA
:100E10007920863140014308E1004208E0004108A2
:100E2000DF004008DE0000304101AB000030AA00C6
:100E30003D30A9000930A8000030A7000030A6000E
:100E40000030A5000130A400802F38080319292F95
:100E50002A2F2F2F3803031D2E2F2F2F802F3D30A9
:100E60004001C3008630C2003730C100BD30C00031
:100E70005D08F5005C08F4005B08F3005A08F20016
:100E800000309531E625863175084001C7007408A9
:100E9000C6007308C5007208C4008031792086310D
:100EA00040014308E1004208E0004108DF0040083B
:100EB000DE004101490803195E2F5F2F702F0030BB
:100EC000AB00F430AA002330A900F030A8000030B5
:100ED000A7000030A6000030A5000130A400802F3C
:100EE0000030AB007A30AA001230A9000030A80010
:100EF0000030A7000030A6003D30A5000930A40056
:100F00004D03031D842F852FB12F40304001A900D0
:100F10000030A8000030A7000030A6006108AD0036
:100F20006008AC005F08AB005E08AA008C3160244A
:100F3000863140012908E1002808E0002708DF0089
:100F40002608DE00043041013806031DA82FA92F12
:100F5000B12F0030AB000030AA007A30A900123067
:100F6000A80040016108F5006008F4005F08F30084
:100F70005E08F20094315E24863175084001DD0080
:100F80007408DC007308DB007208DA000800F60061
:100F900005307602031CCD2FCE2FD02F0430F60063
:100FA00015307502031CD52FD62FF12F1430F50004
:100FB000F12F75087F3E9B31A1238731FF2F7508E4
:100FC000BF3E9B31A1238731FF2F7508933E9B3194
:100FD000A1238731FF2F7508D33E9B31A123873191
:100FE000FF2F7608013A0319D92F033A0319DF2F8F
:100FF000013A0319E52F073A0319EB2FFF2F0800D9
:101000000800FE0012001E00FE0B02280034400102
:101010008E180B280C288228D0304101EB00C930F3
:10102000890B1028EB0B1028003240018E1819286C
:101030001A28822801304101D40703305402031CCE
:10104000222823282428D4019B31712388314C285D
:1010500040019815181298129530F500A030F6004E
:101060009C31B324883160284001981118169812D9
:101070009130F500A030F6009C31B324883160280F
:1010800040019811181298165930F500A030F6005A
:101090009C31B3248831602841015408EB00EC01F5
:1010A0006C08003A0319552860286B08003A0319A8
:1010B0002828013A03193428033A031940286028E4
:1010C0005330F500A030F6009C31B324883109304C
:1010D0004101EC001E30EB00E430890B6D28EB0B76
:1010E0006D28EC0B6D28000040018E1C78287928B3
:1010F00074289331292388318E31042688310130B8
:101100004101D500080041014F08031988288928AA
:101110008A2846297E0154115311D411D31140015C
:101120008E1993289528013096280030F0000E196A
:101130009A289C2801309D2800307006031DA128A4
:10114000A228FD284101D2015008031DA828A92882
:10115000FA280130D10702305106031DB028B1280A
:10116000FA28E6283C082302031DC0283B08220277
:10117000031DC0283A082102031DC0283908200297
:101180000318C328C428F9282008B9022108BA3B4B
:101190002208BB3B2308BC3BF928350A0319D12898
:1011A000D228F9280130B507F92801302D02F53091
:1011B00003192C02031CDD28DE28F9283208F00070
:1011C000F1017008AC027108AD3BF9285408F00039
:1011D000F1017108003A0319EE28F9287008003A65
:1011E0000319B228013A0319CD28033A0319D52867
:1011F000F928D1010130D00044294101D101500822
:1012000003190329042943290130D2070230520669
:10121000031D0B290C2943292F292008B907210870
:10122000BA3D2208BB3D2308BC3D422935080319BD
:101230001A291B2942290130B502422909302D0201
:10124000C43003192C020318262927294229320801
:10125000F000F1017008AC077108AD3D4229540857
:10126000F000F1017108003A03193729422970088A
:10127000003A03190D29013A03191629033A0319F3
:101280001E294229D201D0010130CF0008009B3134
:101290006B2389319031012089319D31522589316B
:1012A00015304101EF004B30EE00BE30890B56295E
:1012B000EE0B5629EF0B562900009231232289317B
:1012C00005304101EF000F30EE00F130890B662947
:1012D000EE0B6629EF0B66295530F50000309F3183
:1012E0002B2789314D30F50001309F312B27893173
:1012F0004530F50003309F312B2789313D30F50013
:1013000002309F312B2789313530F50004309F3171
:101310002B278931D430F50005309F312B278931B7
:10132000CC30F50006309F312B27893140018E19D2
:101330009A299C2901309D2900304101EE0040018D
:101340000E19A329A5290130A629003041016E06F6
:10135000031DAB29AC29AE290130D00000309B31F0
:101360009923893101309B31992389311D30F50052
:10137000A030F6009C31B3248931F501F50A023022
:101380008731C72789310F30F500A030F6009C3136
:10139000B324893129304101EF009630EE007F30CF
:1013A000890BD029EE0BD029EF0BD0290310400177
:1013B0000F1C03140030093D4101C90049080319FD
:1013C000E229E3290E2A9B31712389310030F5008F
:1013D000A030F6009C31B3248931F501F50A0230C2
:1013E0008731C72789314030F500A030F6009C31A5
:1013F000B324893106309B31992389311930410159
:10140000EF005A30EE00B130890B042AEE0B042AAB
:10141000EF0B042A00329B317123893140010C19F2
:10142000122A132A6B2AC430F50000309F312B2773
:101430008931BC30F50001309F312B2789319B3138
:10144000712389312930F500A030F6009C31B32496
:101450008931F501F50A02308731C72789313530E6
:10146000F500A030F6009C31B32489310F30F5002F
:1014700002308731C727893100309B319923893168
:1014800001309B319923893119304101EF005A30E5
:10149000EE00B130890B4A2AEE0B4A2AEF0B4A2A9A
:1014A000003219304101EF005A30EE00B130890BA3
:1014B000572AEE0B572AEF0B572A003219304101F9
:1014C000EF005A30EE00B130890B642AEE0B642A2B
:1014D000EF0B642A00329331292389318E3104269F
:1014E000893140011C1498158B170B179B31682309
:1014F00089319B316E2389313C30F2001730F30083
:101500009B317B2389318330F2000830F3009B311B
:1015100081238931B930F2001030F3009B318723E9
:1015200089319B30F2001E30F3009B318D238931CD
:1015300088310720893141015608031DA02AA12ABC
:10154000B82A9E31FA2689319431CD2489318231ED
:10155000B422893140015B084101C00040015A08B2
:101560004101BF009031042089319E31CA26893162
:10157000913184218931982A803131284001E60156
:101580004101380837060319C62AC72AF42A04304D
:101590003806031DCC2ACD2AE32A04309B31B92317
:1015A0008A31043041014E02031CD72AD82AF12A7D
:1015B0000330CE000030A3000030A2000330A100B1
:1015C000E830A000F12A38080319E72AE82AED2AB2
:1015D0003803031DEC2AED2AF12A00309B31B92390
:1015E0008A3101304001E60041013C082B02031D15
:1015F000032B3B082A02031D032B3A082902031D73
:10160000032B390828020318062B072B0F2B2B0856
:10161000BC002A08BB002908BA002808B90027081E
:101620003C02031D1D2B26083B02031D1D2B250814
:101630003A02031D1D2B240839020318202B212BED
:10164000292B2708BC002608BB002508BA0024085F
:10165000B9004201300841013C06031D3F2B420105
:101660002F0841013B06031D3F2B42012E0841017B
:101670003A06031D3F2B42012D0841013906031D87
:10168000422B432B4F2B38083706031D482B492B81
:101690004F2B4D084C0603194E2B4F2B112C2708AE
:1016A0003C06031D5D2B26083B06031D5D2B25080C
:1016B0003A06031D5D2B240839060319602B612BA4
:1016C000A92B2B083C06031D6F2B2A083B06031D84
:1016D0006F2B29083A06031D6F2B280839060319BA
:1016E000722B732BA92B2308F5002208F400210884
:1016F000F3002008F2003C08F9003B08F8003A0823
:10170000F7003908F60091313B218A317208410116
:1017100039024001E200730841013A3B4001E30015
:10172000740841013B3B4001E400750841013C3B2A
:101730004001E50065084101BC0040016408410129
:10174000BB00400163084101BA0040016208410149
:10175000B9003C084001DD0041013B084001DC00CC
:1017600041013A084001DB00410139084001DA003B
:101770008631D9268A3140015D084201E0004001EE
:101780005C084201DF0040015B084201DE004001CD
:101790005A084201DD006008F5005F08F4005E08A9
:1017A000F3005D08F2009E3147268A31420130087D
:1017B000031DE42B40302D0242302E3B0F302F3BD7
:1017C000031CE32BE42BF52B41013C08031DF12BFB
:1017D000A030390286303A3B01303B3B0318F12BF5
:1017E000F22BF52B933129238A3141013C08420128
:1017F000B00041013B084201AF0041013A084201FB
:10180000AE00410139084201AD00410138083706F8
:1018100003190B2C0C2C0E2C3808B700013040019A
:10182000E60041014D084C060319172C182C212CF9
:101830004D08CC004D089B31CA238A31013040014C
:10184000E60041014B084A060319272C282C312CAD
:101850004B08CA004B089C31E3248A310130400117
:10186000E60042012C0841012306031D472C4201DA
:101870002B0841012206031D472C42012A08410181
:101880002106031D472C42012908410120060319A6
:101890004A2C4B2C5D2C23084201AC00410122084C
:1018A0004201AB00410121084201AA004101200888
:1018B0004201A90001304001E6004001660808002D
:1018C00040012D088039B7002D35BE00AC1F692CB2
:1018D0006A2C6B2C3E143E0803196F2C702C802C44
:1018E0003E0A031D742C752C7D2C0030AD00003099
:1018F000AC000030AB000030AA00AC17AD01882C62
:101900000030AD000030AC000030AB000030AA0069
:1019100029088039B7062935BF00A81F902C912CC3
:10192000922C3F143F080319962C972CA72C3F0AA2
:10193000031D9B2C9C2CA42C0030A9000030A80077
:101940000030A7000030A600A817A901AF2C003076
:10195000A9000030A8000030A7000030A600290828
:10196000280427042604031DB62CB72CCE2C0030E7
:10197000AD000030AC000030AB000030AA00803079
:10198000AC047F30AD043708AD042D08A9002C0845
:10199000A8002B08A7002A08A600032E3E08031D56
:1019A000D22CD32CDC2C0030A9000030A800003051
:1019B000A7000030A600032E3E08AE00AF012F089E
:1019C000B1003F082E02B000031CB10330087F3E77
:1019D000B8000030313DB9002D08B6002C08B50024
:1019E0002B08B4002A08B3000030AD000030AC0072
:1019F0000030AB000030AA000030BD000030BC0059
:101A00000030BB000030BA00BF01422D3F0803196F
:101A10000A2D0B2D252D0130B335B40DB50DB60DA6
:101A2000890B0C2D0130AA35AB0DAC0DAD0D890B1A
:101A3000132DBD1F1C2D1D2D1E2D2A140130BA354E
:101A4000BB0DBC0DBD0D890B1F2D29083602031DD2
:101A5000332D28083502031D332D27083402031DBA
:101A6000332D26083302031C362D372D402D3D170C
:101A70002608B3022708B43B2808B53B2908B63B23
:101A80000130BF071A303F02031C472D482D062D99
:101A9000360835043404330403194F2D502D692DB5
:101AA0003A14692D0130AA35AB0DAC0DAD0D890B83
:101AB000532DBD1F5C2D5D2D5E2D2A140130BA35CE
:101AC000BB0DBC0DBD0D890B5F2DFF30B807FF307E
:101AD000B93DAC1F6C2D6D2D522DBF01BD1F712D59
:101AE000722D8E2DFF303A05AE00FF303B05AF0062
:101AF000FF303C05B0007F303D05B10031083004B7
:101B00002F042E040319852D862D892D0130BF0049
:101B10008E2D2A1C8C2D8D2D8E2D862D3F08031980
:101B2000922D932DB92D0130AA070030AB3DAC3D6D
:101B3000AD3D2D1C9C2D9D2DB92D2A08AE002B08E6
:101B4000AF002C08B0002D08B1000130B200B13751
:101B5000B00CAF0CAE0CB20BA72D3108AD003008A5
:101B6000AC002F08AB002E08AA000130B8070030E7
:101B7000B93D3908803AAE0080302E02031DC22DD7
:101B8000FF303802031CC52DC62DD32DFF30400178
:101B9000B8000030B9000030AD000030AC000030BB
:101BA000AB000030AA0040013908803AAE00803016
:101BB0002E02031DDD2D013038020318E02DE12D2A
:101BC000ED2D4001B801B9010030AD000030AC008E
:101BD0000030AB000030AA00B70140013808BE0059
:101BE0003E1CF32DF42DF62DAC17F82D7F30AC05EF
:101BF0003E08AE000130AE36890BFB2D2E08AD003D
:101C00003708AD04C52C080041015408031D092EF6
:101C10000A2E022F0430F50001308731C7278E319C
:101C200041013C084001B20041013B084001B100C4
:101C300041013A084001B000410139084001AF00BC
:101C400096318B268E318130F500A030F6009C3124
:101C5000B3248E310F30F50001308731C7278E3124
:101C6000043041013806031D362E372E3F2EA93091
:101C7000F500A030F6009C31B3248E31502E380888
:101C80000319432E442E492E3803031D482E492E96
:101C9000502EA630F500A030F6009C31B3248E31D2
:101CA0000430F50002308731C7278E314101230807
:101CB000031D642E2208031D642EE8302002033029
:101CC000213B0318642E652E782E41012108400126
:101CD000E200410120084001E100933189238E3167
:101CE0009A30F500A030F6009C31B3248E31B92E25
:101CF0004030410120064230031921060F300319FC
:101D000022062304031D852E862E8E2E7830F500A4
:101D1000A030F6009C31B3248E31B92E0030400142
:101D2000A5000030A4000330A300E830A200410168
:101D300023084001A900410122084001A8004101F7
:101D400021084001A700410120084001A60092316E
:101D5000D0228E3140012308E2002208E1009331B5
:101D600089238E319930F500A030F6009C31B324E0
:101D70008E317D30F500A030F6009C31B3248E31D9
:101D80000F30F50002308731C7278E3141014D08F1
:101D9000031DCB2ECC2ED42EA030F500A030F600A3
:101DA0009C31B3248E31E02E4D03031DD82ED92E45
:101DB000E02EA330F500A030F6009C31B3248E3124
:101DC0000D30F50002308731C7278E3141014D08B3
:101DD000031DEB2EEC2EF42E7F30F500A030F60024
:101DE0009C31B3248E31FF2F4B08E400E5016408D9
:101DF0004001E100410165084001E200933189237F
:101E00008E31FF2F5403031D062F072F862F04301A
:101E1000F50001308731C7278E31410135089531F2
:101E200044258E3141015A08E9005908E800580854
:101E3000E7005708E60069084001B2004101680860
:101E40004001B100410167084001B000410166084E
:101E50004001AF0096318B268E316430F500A03002
:101E6000F6009C31B3248E310430F5000230873106
:101E7000C7278E31410131084001DB0041013008A4
:101E80004001DA00410135084001DC009331F023C4
:101E90008E314101E400E50164084001E1004101A7
:101EA00065084001E200933189238E319D30F500B1
:101EB000A030F6009C31B3248E310F30F500023093
:101EC0008731C7278E31410135089031F9208E3195
:101ED0004101EA000A306A0203186F2F702F772F32
:101EE0002730F500A030F6009C31B3248E3141013B
:101EF0006A08E400E50164084001E1004101650869
:101F00004001E200933189238E31FF2F0530F50027
:101F100001308731C7278E3141012C084001AF00C5
:101F200041012D084001B000B101B20196318B266C
:101F30008E315F30F500A030F6009C31B3248E3135
:101F40000E30F50001308731C7278E31DC3041017A
:101F50002C06053003192D06031DAF2FB02FBD2F02
:101F600005309B3199238E3104309B3199238E317A
:101F700005309B3199238E31DF2F05302D02DC3067
:101F800003192C020318C52FC62FD32F02309B3103
:101F900099238E3105309B3199238E3105309B3149
:101FA00099238E31DF2F05309B3199238E310530F7
:101FB0009B3199238E3103309B3199238E3105302B
:101FC000F50002308731C7278E3141012D084001CD
:101FD000EF0041012C084001EE009131D3218E31F8
:101FE0004101DB00DC01DB1BDC039D31D4258E319C
:101FF0007E30F500A030F6009C31B3248E3108000D
:10200000080044010E100800400110190828092892
:102010003F28D030F200CA30890B0C28F20B0C2874
:1020200040011019142815283F2841015408031DA8
:102030001A281B283028380303191F282028252890
:102040003808031D2428252828280430B8003A28F9
:1020500004303806031D2D282E283A28B8013A28C6
:1020600002305406031D352836283A288A30AC0041
:102070000230AD004001101D3E283F283A280800DC
:102080001F340034003400343E3400340034003453
:102090007D34003400340034F4340134003400342E
:1020A000E834033400340034D034073400340034CE
:1020B000A0340F340034003400341E341C34003497
:1020C00000341C341E34003407340F3418341834F0
:1020D000183418340F34073400340A340A34003406
:1020E00000341F3400340034003400340034003431
:1020F0001F34003400340034003401340334073416
:102100000F341F343F347F34FF3401340034003443
:102110000034E83403340034003444344834DC34CC
:1021200005340034003404340E341F340E340434C7
:1021300000340034003404340C341F340C340434C0
:10214000003400340034043406341F3406340434BC
:1021500000340034183408340834083408340F3498
:1021600000340034073404340434043404341C349C
:102170000034410156080319BE28BF28DC2801306D
:102180004201E1070030E23DF4306106031DCC2836
:102190006203031DCC28CD28F828E101E2010310D9
:1021A00040011C1C03140318D628D92840011C1414
:1021B000DB2840011C10F8284F080319E028E1280B
:1021C000F82801304201E3070030E43D00306402AA
:1021D000113003196302031CEE28EF28F828E301ED
:1021E000E4014101CF017E0154155315D415D315D7
:1021F0000800F3007308031DFE28FF2801290230A0
:102200003A297303031D05290629082903303A29B1
:1022100002307306031D0D290E290F290629730AA2
:10222000031D1329142916290A303A29F2013329EA
:102230007208223E86000130870001087302031CE9
:102240002229232931297208233E86000130870084
:102250000108730203182D292E2931297208043E22
:102260003A290130F20706307202031C3829392955
:1022700018290030080075087404730472040319E7
:10228000422943297B2901304001A0005029013017
:10229000F235F30DF40DF50D890B48290130A00737
:1022A000F51F53295429472975087902031D62290E
:1022B00074087802031D622973087702031D6229DE
:1022C00072087602031C652966296E297208F602D7
:1022D0007308F73B7408F83B7508F93B0130F53695
:1022E000F40CF30CF20C890B6F290130A002031DD2
:1022F0007A297B2954297908F5007808F4007708B1
:10230000F3007608F200080040018D198829892918
:10231000D229D0304101EB00C930890B8D29EB0B5C
:102320008D29003240018D1996299729D229410122
:10233000560803199C299E2901309F290030D60098
:102340009B317123913141015608031DA829A92908
:10235000B32940011C144A30F500A030F6009C312E
:10236000B3249131BA294C30F500A030F6009C31ED
:10237000B324913109304101EC001E30EB00E43010
:10238000890BC029EB0BC029EC0BC02900004001D0
:102390008D1DCB29CC29C7299331292391318E3129
:1023A00004269131080043304001DD000730DC0095
:1023B0000030DB000030DA00BD30C300B830C200AE
:1023C0005130C100EC30C0006E08F2006F08F3001D
:1023D000F401F50100309531E62591317508400191
:1023E000C7007408C6007308C5007208C4008031B5
:1023F0007920913140014308E1004208E0004108A2
:10240000DF004008DE008431CD24913140015D08B9
:102410004101DA0040015C084101D90040015B083C
:102420004101D80040015A084101D7005A08F5007F
:102430005908F4005808F3005708F20094315E245C
:1024400091317208080040019511931214109513F0
:102450001513951215128F118D120E100330F60000
:102460007030F5005C30890B332AF50B332AF60BFC
:10247000332A003203309D31F92592316830F5005E
:10248000E430890B412AF50B412A00329B31C123EC
:102490009231E43000320032890B4A2A0032003295
:1024A0009B31C12392310D30890B542A0000023038
:1024B0009D31F92592319F315D279231003A031DFC
:1024C000622A632A5B2A28309B31A123923108308B
:1024D0009B31A123923101309B31A12392310630EF
:1024E0009B31A12392310C309B31A1239231080002
:1024F00040019C019B01980199019A010E309600C0
:10250000C5309200DC309300FE309400033095001B
:102510007E01D901CE01C301E401C130B800013010
:10252000DA000430E5001830C4000430B9001E3071
:10253000CF00E601BA01C501D001DB01FF30BB00CD
:10254000FF30C600FF30D100FF30DC000730E7006D
:10255000FF30BC00FF30C700FF30D200FF30DD008D
:102560000F30E8005511D5115415D4155315D31556
:102570000030F2001030F3009B317B2392310030A9
:10258000F2000830F3009B31812392314E01161680
:102590001A307E01AA000730990005309800080023
:1025A00000304001AD000030AC000030AB00003026
:1025B000AA0025082404230422040319E02AE12A9E
:1025C000202B0130AE00ED2A0130A235A30DA40D61
:1025D000A50D890BE52A0130AE07A51FF02AF12AC7
:1025E000E42A0130AA35AB0DAC0DAD0D890BF22AF2
:1025F00025082902031D062B24082802031D062B8B
:1026000023082702031D062B22082602031C092B80
:102610000A2B132B2208A6022308A73B2408A83B59
:102620002508A93B2A140130A536A40CA30CA20C42
:10263000890B142B0130AE02031D1F2B202BF12A16
:102640002D08A5002C08A4002B08A3002A08A2002E
:1026500008009B317123933141015408031D312B34
:10266000322B472B8930F500A030F6009C31B32483
:102670009331F501F50A02308731C72793318D3048
:10268000F500A030F6009C31B3249331882B54031D
:10269000031D4B2B4C2B6E2B8930F500A030F60020
:1026A0009C31B3249331F501F50A02308731C727F5
:1026B00093318530F500A030F6009C31B32493317E
:1026C0000B30F50002308731C72793317330F500A6
:1026D000A030F6009C31B3249331882B023054068D
:1026E000031D732B742B882B6E30F500A030F60081
:1026F0009C31B3249331F501F50A02308731C727A5
:1027000093316930F500A030F6009C31B324933149
:1027100008004001E5010430E900A22B1030E6007A
:102720002730E700B02BE830E6000330E700B02B9D
:102730006430E6000030E700B02B0A30E6000030DD
:10274000E700B02B6908013A03199D2B033A0319DE
:10275000982B013A0319932B073A03198E2BB02BB0
:102760006708F3006608F2006208F5006108F400EB
:102770009F31C627933172084001E8006508031DA8
:10278000C22BC32BC82B68080319C72BC82BD02B0F
:102790006808303E9B319923933101304001E500B8
:1027A0006808E300E4016308F2006408F3006708C6
:1027B000F5006608F4009D317125933172084001DF
:1027C000E1027308E23B0130E9026908031DE92BCD
:1027D000EA2BA22B6108303E9B31992393310800EC
:1027E00040304001C3008030C2000030C1000030E2
:1027F000C0005C08013EF200003003180130F30015
:10280000F401F31BF4037408F50001309531E6255B
:10281000933175084001C7007408C6007308C500ED
:102820007208C40080317920933140014308A90027
:102830004208A8004108A7004008A6004230C30093
:10284000C830C2000030C1000030C0005A08F20099
:102850005B08F300F401F50100309531E625933172
:1028600075084001C7007408C6007308C5007208E7
:10287000C40080317920933140014308AD00420803
:10288000AC004108AB004008AA008C3160249331B1
:1028900040012908E0002808DF002708DE0026089C
:1028A000DD006008F5005F08F4005E08F3005D08D5
:1028B000F20094315E249331720808000310740D05
:1028C000750D4001A1002108031D672C682C712C97
:1028D0000030F5000030F4000030F3000030F2006A
:1028E000CC2C7208F6007308F7007408F80075081D
:1028F000F9001F30F936F80CF70CF60C890B7A2C1E
:102900007608A000F417FF30F205FF30F305FF3022
:10291000F4050030F5059630A102A11F902C912CF2
:10292000A72C2108803A973E0318972C982C992CB5
:10293000682C0130F536F40CF30CF20C890B9A2C50
:102940000130A107031DA52CA62C992CBC2C2030EE
:102950002102031CAC2CAD2CB72C682C0130F235B5
:10296000F30DF40DF50D890BAF2C0130A1022108F8
:10297000031DBB2CBC2CAE2C20080319C02CC12C71
:10298000CC2CF209F309F409F509F20A0319F30A48
:102990000319F40A0319F50A080040010E1AD12C94
:1029A000D22C432DD0304001A400C930890BD62C45
:1029B000A40BD62C003240010E1ADF2CE02C432D44
:1029C00041015408031DE52CE62C342D0130CE07BF
:1029D00038030319EC2CED2CF22C3808031DF12CD4
:1029E000F22CFA2C07304E02031CF72CF82C012D88
:1029F000CE01012D04304E02031CFF2C002D012DB1
:102A0000F82C4E084001A50000304101A300003021
:102A1000A2000030A1000130A0002B2D0030F500F5
:102A20000030F4000030F3000A30F20041012308C6
:102A3000F9002208F8002108F7002008F6009F316D
:102A40009027943175084101A3007408A20073080F
:102A5000A1007208A00001304001A502250A031D53
:102A6000322D332D0E2D3E2D02305406031D392DEF
:102A70003A2D3E2DDC30AC000530AD0040010E1E7D
:102A8000422D432D3E2D08004101DF003F30400123
:102A9000C3000030C2000030C1000030C0003F3031
:102AA000DD008030DC000030DB000030DA00410166
:102AB0005F08DB00DC01DD01DE015E08F5005D087A
:102AC000F4005C08F3005B08F20001309531E62564
:102AD000953175084001E1007408E0007308DF00DB
:102AE0007208DE008431CD24953140015D08C700B5
:102AF0005C08C6005B08C5005A08C4008031792014
:102B00009531400143084101E30040014208410181
:102B1000E200400141084101E1004001400841015B
:102B2000E00049304001C3007430C2002430C100CD
:102B30000030C000410163084001A9004101620862
:102B40004001A800410161084001A700410160085F
:102B50004001A6003F30AD008030AC000030AB003B
:102B60000030AA008C316024953140012908C7004B
:102B70002808C6002708C5002608C400803179202F
:102B80009531400143084101E30040014208410101
:102B9000E200400141084101E100400140084101DB
:102BA000E0006308F5006208F4006108F3006008C3
:102BB000F20094315E24953175084101DA00740801
:102BC000D9007308D8007208D70008004001A0009F
:102BD00020080319EC2DED2D012EF51FF02DF12D00
:102BE000012E7209A2007309A3007409A4007509DB
:102BF000A500A20A0319A30A0319A40A0319A50A26
:102C0000092E7508A5007408A4007308A3007208B3
:102C1000A2007508740473047204031D102E112E93
:102C20001A2E0030F5000030F4000030F3000030C0
:102C3000F2008A2E9630A100262E0130A107013025
:102C4000A536A40CA30CA20C890B202EFE30250562
:102C5000031D2B2E2C2E1D2E3C2E0130A1070130E2
:102C6000A2070030A33DA43DA53D0130A536A40C2C
:102C7000A30CA20C890B362EFF302505031D412E17
:102C8000422E2D2E4C2E0130A1020130A235A30D73
:102C9000A40DA50D890B462EA41B4F2E502E562E8B
:102CA000023021020318552E562E432E2118592E7C
:102CB0005A2E622EFF30A205FF30A3057F30A405F7
:102CC000FF30A5050310A10C2108F600F701F8015B
:102CD000F9011830F635F70DF80DF90D890B6A2E4C
:102CE0007608A2047708A3047808A4047908A50448
:102CF000200803197C2E7D2E822EF51F802E812E1A
:102D0000822EA5172508F5002408F4002308F300F7
:102D10002208F20008004001B7010730B900CF2EA9
:102D20000030BD009830BC009630BB008030BA0047
:102D3000E62E0030BD000F30BC004230BB004030FA
:102D4000BA00E62E0030BD000130BC008630BB006A
:102D5000A030BA00E62E0030BD000030BC002730A5
:102D6000BB001030BA00E62E0030BD000030BC00C1
:102D70000330BB00E830BA00E62E0030BD00003062
:102D8000BC000030BB006430BA00E62E0030BD004D
:102D90000030BC000030BB000A30BA00E62E390813
:102DA000013A0319C62E033A0319BD2E013A03193D
:102DB000B42E073A0319AB2E013A0319A22E033A97
:102DC0000319992E013A0319902EE62E3D08A5000D
:102DD0003C08A4003B08A3003A08A2003208A9005E
:102DE0003108A8003008A7002F08A6009231D02291
:102DF000963140012208B8003708031D002F012F2B
:102E0000062F38080319052F062F0E2F3808303EDD
:102E10009B319923963101304001B7003808B30047
:102E2000B401B501B6013608F5003508F4003408E0
:102E3000F3003308F2003D08F9003C08F8003B08B5
:102E4000F7003A08F6009F3190279631720840014A
:102E5000AF027308B03B7408B13B7508B23B013058
:102E6000B9023908031D352F362FCF2E2F08303EDB
:102E70009B3199239631080041014F080319412FD6
:102E8000422F432FFF2F7E0154115311D411D31120
:102E900040018E194C2F4E2F01304F2F0030F00083
:102EA0000E19532F552F0130562F00307006031D79
:102EB0005A2F5B2FA42F4101D1015008031D612F10
:102EC000622FA12F0130D20702305206031D692F55
:102ED0006A2FA12F8D2F2008B9072108BA3D22089B
:102EE000BB3D2308BC3DA02F35080319782F792F4F
:102EF000A02F0130B502A02F09302D02C4300319D4
:102F00002C020318842F852FA02F3208F000F10126
:102F10007008AC077108AD3DA02F5408F000F10116
:102F20007108003A0319952FA02F7008003A031971
:102F30006B2F013A0319742F033A03197C2FA02F2A
:102F4000D2010130D000FD2F4101D20150080319F8
:102F5000AA2FAB2FFC2F0130D10702305106031DE1
:102F6000B22FB32FFC2FE82F3C082302031DC22FE2
:102F70003B082202031DC22F3A082102031DC22F63
:102F8000390820020318C52FC62FFB2F2008B902CD
:102F90002108BA3B2208BB3B2308BC3BFB2F350A68
:102FA0000319D32FD42FFB2F0130B507FB2F01308E
:102FB0002D02F53003192C02031CDF2FE02FFB2F0D
:102FC0003208F000F1017008AC027108AD3BFB2F34
:102FD0005408F000F1017108003A0319F02FFB2F9B
:102FE0007008003A0319B42F013A0319CF2F033A9E
:102FF0000319D72FFB2FD101D0010130CF000800DA
:1036D0004B019E1708004B019E13080044010E1475
:1036E000080001309B31A1239B310800F2007208D1
:1036F00045018D00080073084201EA007208E900E4
:10370000080073084201E8007208E7000800730827
:103710004101C6007208C500080073084101C200DB
:103720007208C1000800640080010131890B942BEC
:103730000034F40040018F1574089C3172249B31D1
:103740000800F40040018F1174089C3172249B31F1
:103750000800013041019D00F0309E009B019C015A
:10376000080080304601960013309500C030940068
:103770000800F2004B0113087206F039720693003C
:10378000080040010E140530890BC42B00004001D5
:103790000E100800F200720C4B01031C12100318EB
:1037A000121472084101CD00080040304F0196000C
:1037B0009701473098003B309900F0309A001E3056
:1037C0009B000800420169086A040319E82BE92BF1
:1037D000EE2B6A088A0069080A009B317E015511A8
:1037E00008004201670868040319F72BF82BFD2B2A
:1037F00068088A0067080A009B317E01D51108001D
:1038000001304C0191008E018F0114309200930120
:1038100094018C0103308D008430900008004B012E
:103820009201443093008E018D018C010130910092
:103830000630900025308F0092170800103051019B
:103840008D008F01043091000530930090019201AA
:10385000101C2B2C2C2C282C08000130450190002A
:1038600020308F00910127308D008C014E01901087
:10387000A03045018E0008007E01551D402C412CD2
:10388000442C9B31E2239C317E01D51D482C492CD0
:103890004C2C9B31F1239C31080044010E1D512C0E
:1038A000522C592C0E1071088D0070088C000E14CB
:1038B0005D2C71088D0070088C0008004E018C1280
:1038C0007B084B019D007A089C0041014508460495
:1038D00003196B2C6C2C712C46088A0045080A00D1
:1038E0009C310800F3009F315D279C31003A031D95
:1038F0007A2C7B2C732C73089D31F9259C31F30EA7
:10390000F030F30573089D31F9259C3108007308E8
:10391000F5007208F400F536F40CF536F40C740872
:103920004601950072080339F4000630F435890B1E
:10393000962C7408940008004E01101041014408B0
:10394000F1004308F0009C314D249C3141014108B5
:1039500042040319AC2CAD2CB22C42088A00410859
:103960000A009C310800C02C750884007608850088
:1039700000089B3199239C310130F5070030F63D5A
:1039800075088400760885001200031DC82CC92C18
:10399000B42C080050304B019F00E0309D00C03037
:1039A0009C001D08FB001C08FA004E018C129616A4
:1039B0000230F2000030F3009B3187239C319030BD
:1039C0004B019E000800F30041014D08031DE92C46
:1039D000EA2CEB2CFD2C08307302031CF02CF12C8C
:1039E000F32C0730F3007308F200F20EF20D4B01D6
:1039F000130872061F39720693000800F500750857
:103A0000F400F40DF40D41011D0874060339740629
:103A10009D001D140D30890B0B2D000041019D14DC
:103A20009D18132D142D102D1C08F3001B08F200F7
:103A300008002034003400340034403400340034B2
:103A40000034803400340034003400340134003455
:103A500000340034043400340034003408340034BA
:103A600000340034103400340034013400340034A5
:103A70000034013400340034003409343D3400345F
:103A80000034DC3405340134003401340034323481
:103A9000023427342734043404340434E83403343F
:103AA000003400349B31D5239D31923178229D31F1
:103AB0009C311E249D319B31A9239D319C310F24C3
:103AC0009D319B31B1239D319C312D249D319D3100
:103AD00090259D319C31CA249D319C3100249D311B
:103AE0000800F601F701721C762D772D7B2D7408E6
:103AF000F6077508F73D0130F435F50D890B7C2D7F
:103B00000130F336F20C890B812D72087304031D0A
:103B10008A2D8B2D732D7708F3007608F2000800AC
:103B200044018F01900102309100F9308D00803006
:103B30008C004E01101044010D084101C4004401E5
:103B40000C084101C3004E011A140330F20000308A
:103B5000F3009B318D239D31073044018E00080016
:103B60004001A400A001A1017208F400F50174084D
:103B7000A2007508A300241CBE2DBF2DC32D220852
:103B8000A0072308A13D0130A235A30D890BC42D48
:103B90000310A40C2408031DCE2DCF2DBB2D21080E
:103BA000F3002008F20008004101DC1FD82DD92DB8
:103BB000EE2D2D309B3199239D31FF30F200FF30E7
:103BC000F30041015C08F5005B08F4009D317125AC
:103BD0009D3173084101DC007208DB005C08400184
:103BE000E20041015B084001E100933189239D31EE
:103BF0000800F200F21FFD2DFE2D012E40018F174F
:103C0000032E40018F13721F062E072E092E0F1749
:103C10000A2E0F13F21E0D2E0E2E102E8F16112EA1
:103C20008F12721E142E152E172E0F16182E0F120D
:103C300000320032003200329B31C1239D31080036
:103C40004201340841012D06031D2A2E420133088A
:103C500041012C0603192D2E2E2E452E2D08420132
:103C6000B40041012C084201B3002030F2004E3074
:103C7000F30041012C0872024201B10041012D08FC
:103C8000733B4201B2000130462E0030080072083A
:103C9000F6007308F7007408F8007508F900103092
:103CA000F936F80CF70CF60C890B502E76084B0100
:103CB00091007208F6007308F7007408F8007508A0
:103CC000F9000830F936F80CF70CF60C890B622E67
:103CD0007608900072088F008E018D018C0108001B
:103CE000F6014101350834060319772E782E812E0E
:103CF00035089B3176239E3141013508B4000130EF
:103D0000F6002F083106031D872E2E0830060319F2
:103D10008A2E8B2E992E3108F3003008F2009C3148
:103D200087249E3141013108AF003008AE000130D8
:103D3000F6007608080041013208083EF000003025
:103D400003180130F1007008BD077108BE3D2D0851
:103D50003E02031DAD2E2C083D020318B02EB12EDD
:103D6000B42E40019814B62E4001981041013E082F
:103D700042013202031DC02E41013D0842013102C1
:103D80000318C32EC42EC92E4101BD01BE0140013E
:103D90009810080040010D1ACE2ECF2EF92ED030EB
:103DA000F200CA30890BD22EF20BD22E40010D1A2E
:103DB000DA2EDB2EF92E41015408031DE02EE12EF0
:103DC000EA2E4D080319E52EE72E0130E82E0030CB
:103DD000CD00F42E02305406031DEF2EF02EF42EEB
:103DE0002E30AC000930AD0040010D1EF82EF92E2A
:103DF000F42E08004101ED010F2F8A31BE229E31C1
:103E00004101ED00222F9E3170269E314101ED00CF
:103E1000222F9E3120269E314101ED00222F540891
:103E2000EB00EC016C08003A0319172F222F6B08E6
:103E3000003A0319FD2E013A0319032F033A03191F
:103E4000092F222F6D080319262F272F2A2F8E3195
:103E500004269E310800F70008307702031C312F3A
:103E6000322F332F5C2F08309B31A1239F317708ED
:103E7000F6000330F635890B3A2F7608403E9B3129
:103E8000A1239F31F801750878078600013087006B
:103E900001089B3199239F310130F80708307802DF
:103EA000031C532F542F432F01309B31A1239F31EB
:103EB0000C309B31A1239F31080040019517151745
:103EC000951615160F0CF200F20C720C0139410117
:103ED000C70040018D168F110E14003200320032DF
:103EE000003240010F0D0F0D01394101C8004001A2
:103EF0000E1000320032003200329B31C1239F315C
:103F0000400195131513951215128D124101470C9E
:103F10004001031C8F1103188F1541014808080048
:103F200000304001A3000030A2000030A1000030AA
:103F3000A000721C9C2F9D2FA62F76084001A00781
:103F40007708A13D7808A23D7908A33D0130F635F8
:103F5000F70DF80DF90D890BA72F0130F536F40C8C
:103F6000F30CF20C890BAE2F750874047304720401
:103F7000031DBB2FBC2F992F40012308F5002208F9
:103F8000F4002108F3002008F2000800F601F70110
:103F9000720873040319CD2FCE2FFB2F0130F800C8
:103FA000D82F0130F235F30D890BD22F0130F807ED
:103FB000F31FDB2FDC2FD12F0130F635F70D890BE6
:103FC000DD2F73087502031DE72F72087402031CAE
:103FD000EA2FEB2FF02F7208F4027308F53B7614EA
:103FE0000130F336F20C890BF12F0130F802031D7A
:103FF000FA2FFB2FDC2F7708F3007608F200080079
:10400000463475346C346C34203446347234653440
:104010007134753465346E34633479340034623409
:104020007934203440344334793442343334723474
:104030006E343034693464340034203453345334AF
:10404000573447342034763431342E3430343034DD
:104050000034333438343934313431342034423458
:1040600061347334693463340034423479347434E1
:104070006534733420344634723465346534003426
:1040800075346E346C346F3463346B34653464343B
:104090002034003455344E344C344F3443344B3494
:1040A00045344434003420346D346F346434653422
:1040B000003453346534723476346F3400346D34E4
:1040C000533420342034003448347A3420342034BB
:1040D00000344434653467343A3400345034753431
:1040E0006C343A3400345234653473343A34003426
:1040F00031344D3448347A34003420342034203480
:10410000003448347A3420340034443443343A346C
:104110000034463472343A340034533474343A340C
:104120000034503457344D3400344E3443344F341B
:1041300000344B3448347A3400342534203400348D
:10414000463444340034503446340034483449341E
:0841500000344C344F340034FC
:020000040001F9
:08000000FF3FFF3FFF3FFF3F00
:0A000E009C3FFF3F9F3FFF3FFF3F75
:00000001FF
